{
  "_format": "hh-sol-artifact-1",
  "contractName": "CrowdFunding",
  "sourceName": "contracts/CrowdFunding.sol",
  "abi": [
    {
      "inputs": [
        {
          "internalType": "uint256",
          "name": "",
          "type": "uint256"
        }
      ],
      "name": "campaigns",
      "outputs": [
        {
          "internalType": "address",
          "name": "owner",
          "type": "address"
        },
        {
          "internalType": "string",
          "name": "title",
          "type": "string"
        },
        {
          "internalType": "string",
          "name": "description",
          "type": "string"
        },
        {
          "internalType": "uint256",
          "name": "target",
          "type": "uint256"
        },
        {
          "internalType": "uint256",
          "name": "deadline",
          "type": "uint256"
        },
        {
          "internalType": "uint256",
          "name": "amountCollected",
          "type": "uint256"
        },
        {
          "internalType": "string",
          "name": "image",
          "type": "string"
        }
      ],
      "stateMutability": "view",
      "type": "function"
    },
    {
      "inputs": [
        {
          "internalType": "address",
          "name": "_owner",
          "type": "address"
        },
        {
          "internalType": "string",
          "name": "_title",
          "type": "string"
        },
        {
          "internalType": "string",
          "name": "_description",
          "type": "string"
        },
        {
          "internalType": "uint256",
          "name": "_target",
          "type": "uint256"
        },
        {
          "internalType": "uint256",
          "name": "_deadline",
          "type": "uint256"
        },
        {
          "internalType": "string",
          "name": "_image",
          "type": "string"
        }
      ],
      "name": "createCampaingn",
      "outputs": [
        {
          "internalType": "uint256",
          "name": "",
          "type": "uint256"
        }
      ],
      "stateMutability": "nonpayable",
      "type": "function"
    },
    {
      "inputs": [
        {
          "internalType": "uint256",
          "name": "_id",
          "type": "uint256"
        }
      ],
      "name": "donateToCampaing",
      "outputs": [],
      "stateMutability": "payable",
      "type": "function"
    },
    {
      "inputs": [],
      "name": "getCampaigns",
      "outputs": [
        {
          "components": [
            {
              "internalType": "address",
              "name": "owner",
              "type": "address"
            },
            {
              "internalType": "string",
              "name": "title",
              "type": "string"
            },
            {
              "internalType": "string",
              "name": "description",
              "type": "string"
            },
            {
              "internalType": "uint256",
              "name": "target",
              "type": "uint256"
            },
            {
              "internalType": "uint256",
              "name": "deadline",
              "type": "uint256"
            },
            {
              "internalType": "uint256",
              "name": "amountCollected",
              "type": "uint256"
            },
            {
              "internalType": "string",
              "name": "image",
              "type": "string"
            },
            {
              "internalType": "address[]",
              "name": "donators",
              "type": "address[]"
            },
            {
              "internalType": "uint256[]",
              "name": "donations",
              "type": "uint256[]"
            }
          ],
          "internalType": "struct CrowdFunding.Campaign[]",
          "name": "",
          "type": "tuple[]"
        }
      ],
      "stateMutability": "view",
      "type": "function"
    },
    {
      "inputs": [
        {
          "internalType": "uint256",
          "name": "_id",
          "type": "uint256"
        }
      ],
      "name": "getDonators",
      "outputs": [
        {
          "internalType": "address[]",
          "name": "",
          "type": "address[]"
        },
        {
          "internalType": "uint256[]",
          "name": "",
          "type": "uint256[]"
        }
      ],
      "stateMutability": "view",
      "type": "function"
    },
    {
      "inputs": [],
      "name": "numberOfCampaigns",
      "outputs": [
        {
          "internalType": "uint256",
          "name": "",
          "type": "uint256"
        }
      ],
      "stateMutability": "view",
      "type": "function"
    }
  ],
  "bytecode": "0x6080604052600060015534801561001557600080fd5b50610f71806100256000396000f3fe6080604052600436106100555760003560e01c806307ca140d1461005a5780630fa91fa914610083578063141961bc146100b15780632a2addc1146100e4578063a6b03633146100f9578063aca60ae51461011b575b600080fd5b34801561006657600080fd5b5061007060015481565b6040519081526020015b60405180910390f35b34801561008f57600080fd5b506100a361009e36600461095d565b61013b565b60405161007a929190610976565b3480156100bd57600080fd5b506100d16100cc36600461095d565b61020a565b60405161007a9796959493929190610a40565b6100f76100f236600461095d565b6103e7565b005b34801561010557600080fd5b5061010e6104a9565b60405161007a9190610b1e565b34801561012757600080fd5b50610070610136366004610cce565b610856565b600081815260208181526040918290206007810180548451818502810185019095528085526060948594929360080192909184918301828280156101a857602002820191906000526020600020905b81546001600160a01b0316815260019091019060200180831161018a575b50505050509150808054806020026020016040519081016040528092919081815260200182805480156101fa57602002820191906000526020600020905b8154815260200190600101908083116101e6575b5050505050905091509150915091565b600060208190529081526040902080546001820180546001600160a01b03909216929161023690610d87565b80601f016020809104026020016040519081016040528092919081815260200182805461026290610d87565b80156102af5780601f10610284576101008083540402835291602001916102af565b820191906000526020600020905b81548152906001019060200180831161029257829003601f168201915b5050505050908060020180546102c490610d87565b80601f01602080910402602001604051908101604052809291908181526020018280546102f090610d87565b801561033d5780601f106103125761010080835404028352916020019161033d565b820191906000526020600020905b81548152906001019060200180831161032057829003601f168201915b50505050509080600301549080600401549080600501549080600601805461036490610d87565b80601f016020809104026020016040519081016040528092919081815260200182805461039090610d87565b80156103dd5780601f106103b2576101008083540402835291602001916103dd565b820191906000526020600020905b8154815290600101906020018083116103c057829003601f168201915b5050505050905087565b600081815260208181526040808320600781018054600180820183559186528486200180546001600160a01b0319163317905560088201805491820181558552928420349301839055805491519293909290916001600160a01b03169084908381818185875af1925050503d806000811461047e576040519150601f19603f3d011682016040523d82523d6000602084013e610483565b606091505b5050905080156104a35782826005015461049d9190610dd1565b60058301555b50505050565b6060600060015467ffffffffffffffff8111156104c8576104c8610c2b565b60405190808252806020026020018201604052801561055157816020015b61053e60405180610120016040528060006001600160a01b0316815260200160608152602001606081526020016000815260200160008152602001600081526020016060815260200160608152602001606081525090565b8152602001906001900390816104e65790505b50905060005b60015481101561085057600081815260208181526040918290208251610120810190935280546001600160a01b03168352600181018054919392849290840191906105a190610d87565b80601f01602080910402602001604051908101604052809291908181526020018280546105cd90610d87565b801561061a5780601f106105ef5761010080835404028352916020019161061a565b820191906000526020600020905b8154815290600101906020018083116105fd57829003601f168201915b5050505050815260200160028201805461063390610d87565b80601f016020809104026020016040519081016040528092919081815260200182805461065f90610d87565b80156106ac5780601f10610681576101008083540402835291602001916106ac565b820191906000526020600020905b81548152906001019060200180831161068f57829003601f168201915b505050505081526020016003820154815260200160048201548152602001600582015481526020016006820180546106e390610d87565b80601f016020809104026020016040519081016040528092919081815260200182805461070f90610d87565b801561075c5780601f106107315761010080835404028352916020019161075c565b820191906000526020600020905b81548152906001019060200180831161073f57829003601f168201915b50505050508152602001600782018054806020026020016040519081016040528092919081815260200182805480156107be57602002820191906000526020600020905b81546001600160a01b031681526001909101906020018083116107a0575b505050505081526020016008820180548060200260200160405190810160405280929190818152602001828054801561081657602002820191906000526020600020905b815481526020019060010190808311610802575b50505050508152505083838151811061083157610831610dea565b602002602001018190525050808061084890610e00565b915050610557565b50919050565b6001546000908152602081905260408120600481015442116108d35760405162461bcd60e51b815260206004820152602c60248201527f54686520646561646c696e652073686f756c642062652061206461746520696e60448201526b103a343290333aba3ab9329760a11b606482015260840160405180910390fd5b80546001600160a01b0319166001600160a01b038916178155600181016108fa8882610e68565b50600281016109098782610e68565b506003810185905560048101849055600060058201556006810161092d8482610e68565b506001805490600061093e83610e00565b9190505550600180546109519190610f28565b98975050505050505050565b60006020828403121561096f57600080fd5b5035919050565b604080825283519082018190526000906020906060840190828701845b828110156109b85781516001600160a01b031684529284019290840190600101610993565b5050508381038285015284518082528583019183019060005b818110156109ed578351835292840192918401916001016109d1565b5090979650505050505050565b6000815180845260005b81811015610a2057602081850181015186830182015201610a04565b506000602082860101526020601f19601f83011685010191505092915050565b6001600160a01b038816815260e060208201819052600090610a64908301896109fa565b8281036040840152610a7681896109fa565b90508660608401528560808401528460a084015282810360c0840152610a9c81856109fa565b9a9950505050505050505050565b600081518084526020808501945080840160005b83811015610ae35781516001600160a01b031687529582019590820190600101610abe565b509495945050505050565b600081518084526020808501945080840160005b83811015610ae357815187529582019590820190600101610b02565b60006020808301818452808551808352604092508286019150828160051b87010184880160005b83811015610c1d57888303603f19018552815180516001600160a01b0316845261012088820151818a870152610b7d828701826109fa565b9150508782015185820389870152610b9582826109fa565b606084810151908801526080808501519088015260a0808501519088015260c080850151888303828a01529193509150610bcf83826109fa565b9250505060e08083015186830382880152610bea8382610aaa565b925050506101008083015192508582038187015250610c098183610aee565b968901969450505090860190600101610b45565b509098975050505050505050565b634e487b7160e01b600052604160045260246000fd5b600082601f830112610c5257600080fd5b813567ffffffffffffffff80821115610c6d57610c6d610c2b565b604051601f8301601f19908116603f01168101908282118183101715610c9557610c95610c2b565b81604052838152866020858801011115610cae57600080fd5b836020870160208301376000602085830101528094505050505092915050565b60008060008060008060c08789031215610ce757600080fd5b86356001600160a01b0381168114610cfe57600080fd5b9550602087013567ffffffffffffffff80821115610d1b57600080fd5b610d278a838b01610c41565b96506040890135915080821115610d3d57600080fd5b610d498a838b01610c41565b9550606089013594506080890135935060a0890135915080821115610d6d57600080fd5b50610d7a89828a01610c41565b9150509295509295509295565b600181811c90821680610d9b57607f821691505b60208210810361085057634e487b7160e01b600052602260045260246000fd5b634e487b7160e01b600052601160045260246000fd5b80820180821115610de457610de4610dbb565b92915050565b634e487b7160e01b600052603260045260246000fd5b600060018201610e1257610e12610dbb565b5060010190565b601f821115610e6357600081815260208120601f850160051c81016020861015610e405750805b601f850160051c820191505b81811015610e5f57828155600101610e4c565b5050505b505050565b815167ffffffffffffffff811115610e8257610e82610c2b565b610e9681610e908454610d87565b84610e19565b602080601f831160018114610ecb5760008415610eb35750858301515b600019600386901b1c1916600185901b178555610e5f565b600085815260208120601f198616915b82811015610efa57888601518255948401946001909101908401610edb565b5085821015610f185787850151600019600388901b60f8161c191681555b5050505050600190811b01905550565b81810381811115610de457610de4610dbb56fea2646970667358221220f22357ad5778017b0332268ecf226fe65d03ab1b1d557ec26899479ba76fd6ed64736f6c63430008110033",
  "linkReferences": {},
  "deployedLinkReferences": {}
}